:100000000C947A000C941D010C941D010C941D019C
:100010000C941D010C941D010C941D010C941D01E8
:100020000C941D010C941D010C941D010C941D01D8
:100030000C941D010C941D010C941D010C941D01C8
:100040000C941D010C941D010C941D010C941D01B8
:100050000C941D010C941D010C941D010C941D01A8
:100060000C941D010C941D010C941D010C941D0198
:100070000C941D010C941D010C941D010C94AD00F9
:100080000C941D010C941D010C941D010C941D0178
:100090000C941D010C941D010C941D010C941D0168
:1000A0000C941D010C941D010C941D010C941D0158
:1000B0000C941D010C941D010C941D010C941D0148
:1000C0000C941D010C941D010C941D010C941D0138
:1000D0000C941D010C941D010C941D010C941D0128
:1000E0000C941D010C941D0140004004804004400C
:1000F00005000248809101108F7C806080688093A9
:10010000011011241FBECFEFCDBFDFE7DEBFE8EE49
:10011000F0E040E019C0B791A7913791279107917E
:1001200007FD0EC097918791EF01F92FE82F0BBFC4
:1001300007900D92A217B307D9F7FE011BBE04C0AA
:100140001D92A217B307E1F7E43FF40721F70E94DD
:0A0150000D010C940201F894FFCF9A
:10015A001F920F920FB60F9211240BB60F922F9384
:10016A003F934F935F936F937F938F939F93AF9335
:10017A00BF93EF93FF938091200880E090E40E9460
:10018A00F500FF91EF91BF91AF919F918F917F9170
:10019A006F915F914F913F912F910F900BBE0F90EE
:0801AA000FBE0F901F90189585
:1001B200E0E2F8E08BE890E08087918781E080932D
:0C01C200410480EC868380E8858308956A
:1001CE0084E080930104E0E0FBE08FEF848780E819
:0C01DE00858784E1818381E0808308959F
:1001EA00AC0190E080E002C08F5F9F5FFA01E90FE7
:0A01FA00F11D20812111F8CF0895B6
:10020400EC010E9422010E942101CE010E942301DF
:06021400CE010E941F0153
:10021A000E94D9000E94E7007894809104400E94CD
:04022A001701FBCFEE
:0C022E0090E080930C0B90930D0B089552
:04023A000C94000020
:04023E000E94AB006F
:0202420008951D
:0202440008951B
:02024600089519
:010248008035
:00000001FF
