:100000000C9474000C94A7000C94A7000C94A70007
:100010000C94A7000C94A7000C94A7000C94A700C4
:100020000C94A7000C94A7000C94A7000C94A700B4
:100030000C94A7000C94A7000C94A7000C94A700A4
:100040000C94A7000C94A7000C94A7000C94A70094
:100050000C94A7000C94A7000C94A7000C94A70084
:100060000C94A7000C94A7000C94A7000C94A70074
:100070000C94A7000C94A7000C94A7000C94A70064
:100080000C94A7000C94A7000C94A7000C94A70054
:100090000C94A7000C94A7000C94A7000C94A70044
:1000A0000C94A7000C94A7000C94A7000C94A70034
:1000B0000C94A7000C94A7000C94A7000C94A70024
:1000C0000C94A7000C94A7000C94A7000C94A70014
:1000D0000C94A7000C94A7000C94A7000C94A70004
:1000E0000C94A7000C94A700809101108F7C806075
:1000F00080688093011011241FBECFEFCDBFDFE7D2
:0E010000DEBF0E9487000C949C00F894FFCF95
:10010E00E0E4F4E080E48183858380E8828388E004
:10011E00878B809148048823E4F380E4809347041E
:0A012E00809148048823E4F7F4CF21
:10013800EC010E94AC000E94AB00CE010E94AD0011
:06014800CE010E94A90097
:04014E000C9400000D
:040152000E94850082
:0201560008950A
:02015800089508
:02015A00089506
:00000001FF
