:100000001CC0B0C0AFC0AEC0ADC0ACC0ABC0AAC019
:10001000A9C0A8C0A7C0A6C0A5C057C0A3C0A2C001
:10002000A1C0A0C09FC09EC09DC09CC02EC09AC051
:1000300099C098C03F003F01800011241FBECFEF40
:10004000CDBFDFE3DEBFE4E3F0E040E017C0B591F1
:10005000A59135912591059107FD0CC0959185914C
:10006000EF01F92FE82F05900D92A217B307D9F7EA
:10007000FE0104C01D92A217B307E1F7E933F407AC
:0A00800031F73AD068C0F894FFCFC2
:10008A001F920F920FB60F9211248F939F93809114
:10009A00000890E2909307048F3F31F08F5F8093BE
:1000AA00003F8093020805C080E8809305041092FF
:1000BA00003F9F918F910F900FBE0F901F90189540
:1000CA001F920F920FB60F9211248F93EF93FF9303
:1000DA00E0E4FAE081E08683128613868083FF914A
:0E00EA00EF918F910F900FBE0F901F90189501
:1000F800E0E0F4E080E28183858388E0878B0BD0A1
:1001080018D07894809108048823CCF38091003F1C
:0601180080930208F4CF01
:10011E0084E080932104E0E0F8E084E790E08087BB
:0C012E00918780EC868380E8858308952B
:10013A00E0E4FAE08FEF90E08487958786E0818398
:0C014A0081E0858392E09083808308951B
:0E015600EC0107D005D0CE0105D0CE0104D0BB
:020164004DCF7D
:020166000895FA
:020168000895F8
:02016A000895F6
:02016C008CDF26
:00000001FF
