:1000000019C022C021C020C01FC01EC01DC01CC0FE
:100010001BC01AC019C018C017C016C015C014C024
:1000200013C012C011C010C00FC00EC00DC00CC054
:100030000BC00AC011241FBECFEFCDBFDFE3DEBF70
:0800400004D017C0F894FFCFB3
:02004800DBCF0C
:10004A0080E48093020480E28093050488E0809330
:10005A00160490E4809108048823E1F39093040441
:02006A00F9CFCC
:02006C000895F5
:02006E000895F3
:020070000895F1
:0E007200EC01FCDFFADFCE01FADFCE0100D098
:02008000E1DFBE
:00000001FF
