:1000000019C03DC03CC03BC03AC039C038C037C041
:1000100036C035C034C033C032C031C030C02FC04C
:100020002EC02DC02CC02BC02AC029C028C027C07C
:1000300026C025C011241FBECFEFCDBFDFE3DEBF3A
:0800400003D016C0F894FFCFB5
:10004800E0E0F4E080E4828380E2818388E0868BCC
:100058008091080486FD04C080E280930504F8CFEF
:0800680080E280930604F4CF4E
:0E007000EC0107D005D0CE0105D0CE0104D0A2
:02007E00C0CFF1
:020080000895E1
:020082000895DF
:020084000895DD
:02008600DEDFBB
:00000001FF
