:100000000C9477000C94F3000C94F3000C94F30020
:100010000C94F3000C94F3000C94F3000C94F30094
:100020000C94F3000C94F3000C94F3000C94F30084
:100030000C94AA000C94F3000C94F3000C94F300BD
:100040000C94F3000C94F3000C94F3000C94F30064
:100050000C94F3000C94F3000C94F3000C94F30054
:100060000C94F3000C94F3000C94F3000C94F30044
:100070000C94F3000C94F3000C94F3000C94F30034
:100080000C94F3000C94F3000C94F3000C94F30024
:100090000C94F3000C94F3000C94F3000C94F30014
:1000A0000C94F3000C94F3000C94F3000C94F30004
:1000B0000C94F3000C94F3000C94F3000C94F300F4
:1000C0000C94F3000C94F3000C94F3000C94F300E4
:1000D0000C94F3000C94F3000C94F3000C94F300D4
:1000E0000C94F3000C94F3004000400280008091D7
:1000F00001108F7C806080688093011011241FBEE6
:10010000CFEFCDBFDFE7DEBFE8EEF0E040E019C0A3
:10011000B791A79137912791079107FD0EC097914D
:100120008791EF01F92FE82F0BBF07900D92A217CF
:10013000B307D9F7FE011BBE04C01D92A217B30777
:10014000E1F7ED3EF40721F70E94ED000C94DC008E
:04015000F894FFCF51
:100154001F920F920FB60F9211248F939F93809149
:10016400004090910140889739F480E480934704DB
:10017400109200401092014081E08093060B809120
:10018400004090910140019680930040909301407B
:0E0194009F918F910F900FBE0F901F901895A6
:1001A200E0E0FBE080E593EC84879587118281E0B3
:0601B2008583808308959F
:1001B800EC010E94F8000E94F700CE010E94F900AD
:0601C800CE010E94F500CB
:0C01CE00E0E4F4E080E481838583089580
:0C01DA000E94E7000E94D1007894FFCF43
:0401E6000C94000075
:0401EA000E94A800C7
:0201EE00089572
:0201F000089570
:0201F20008956E
:00000001FF
